:100000000C9463000C948B000C948B000C948B006C
:100010000C948B000C948B000C948B000C94230498
:100020000C948B000C948B000C948B000C94470563
:100030000C948B000C948B000C948B000C948B0014
:100040000C94FD040C948B000C94CB040C94A5042C
:100050000C948B000C948B000C948B000C948B00F4
:100060000C948B000C948B000000000024002700EF
:100070002A0000000008000201000003040700003D
:1000800000000000000000000000230026002900FE
:10009000010204081020408001020408102001021F
:1000A0000408102000000000250028002B00040494
:1000B0000404040404040202020202020303030310
:1000C00003030200480611241FBECFEFD8E0DEBFB5
:1000D000CDBF11E0A0E0B1E0E2E5F4E102C005909F
:1000E0000D92A631B107D9F721E0A6E1B1E001C038
:1000F0001D92A83FB207E1F710E0C3E6D0E004C0CC
:100100002197FE010E94210AC236D107C9F70E9439
:10011000A5060C94270A0C940000AF92BF92CF92D0
:10012000DF92EF92FF920F931F93CF93DF936C01B7
:100130007B018B01040F151FEB015E01AE18BF0898
:10014000C017D10759F06991D601ED91FC9101904A
:10015000F081E02DC6010995892B79F7C501DF9162
:10016000CF911F910F91FF90EF90DF90CF90BF90B4
:10017000AF900895FC01538D448D252F30E0842FDE
:1001800090E0821B930B541710F0CF9608950197BF
:100190000895FC01918D828D981761F0A28DAE0FAC
:1001A000BF2FB11D5D968C91928D9F5F9F73928F33
:1001B00090E008958FEF9FEF0895FC01918D828D5F
:1001C000981731F0828DE80FF11D858D90E008952C
:1001D0008FEF9FEF0895FC01918D228D892F90E084
:1001E000805C9F4F821B91098F739927089583E349
:1001F00091E00E94EB0021E0892B09F420E0822F9E
:10020000089580E090E0892B29F00E94F700811189
:100210000C9400000895FC01A48DA80FB92FB11D06
:10022000A35ABF4F2C91848D90E001968F7399272C
:10023000848FA689B7892C93A089B1898C9183700A
:1002400080648C93938D848D981306C00288F38903
:10025000E02D80818F7D80830895EF92FF920F9330
:100260001F93CF93DF93EC0181E0888F9B8D8C8D62
:1002700098131AC0E889F989808185FF15C09FB756
:10028000F894EE89FF896083E889F9898081837019
:10029000806480839FBF81E090E0DF91CF911F91C8
:1002A0000F91FF90EF900895F62E0B8D10E00F5FE9
:1002B0001F4F0F731127E02E8C8D8E110CC00FB6BF
:1002C00007FCFACFE889F989808185FFF5CFCE0157
:1002D0000E940B01F1CFEB8DEC0FFD2FF11DE35AC6
:1002E000FF4FF0829FB7F8940B8FEA89FB898081DA
:1002F0008062CFCFCF93DF93EC01888D8823B9F054
:10030000AA89BB89E889F9898C9185FD03C0808120
:1003100086FD0DC00FB607FCF7CF8C9185FFF2CF9D
:10032000808185FFEDCFCE010E940B01E9CFDF91E7
:10033000CF91089590E0FC01EE58FF4F2491FC010D
:10034000E057FF4F3491FC01E255FF4FE491EE235B
:10035000C9F0222339F0233001F1A8F4213019F13A
:10036000223029F1F0E0EE0FFF1FEC55FF4FA59171
:10037000B4918FB7F894EC91611126C030953E236B
:100380003C938FBF08952730A9F02830C9F024305E
:1003900049F7809180008F7D03C0809180008F7726
:1003A00080938000DFCF84B58F7784BDDBCF84B5A9
:1003B0008F7DFBCF8091B0008F778093B000D2CF3C
:1003C0008091B0008F7DF9CF3E2BDACFCF93DF93B2
:1003D00090E0FC01E057FF4F249182559F4FFC01B4
:1003E00084918823D1F090E0880F991FFC01E8598F
:1003F000FF4FA591B491FC01EC55FF4FC591D491ED
:1004000061110EC09FB7F8948C91E22FE0958E2376
:100410008C932881E223E8839FBFDF91CF910895D9
:100420008FB7F894EC91E22BEC938FBFF6CF4F92FD
:100430005F926F927F928F929F92AF92BF92CF9274
:10044000DF92EF92FF920F931F93CF938C018091D5
:1004500000018B3099F08F3F09F48CC0CF911F9130
:100460000F91FF90EF90DF90CF90BF90AF909F9053
:100470008F907F906F905F904F900895E2ECF0E046
:10048000C491C7FDEBCF61E08BE00E94E601CC2375
:1004900019F0C23009F0DDC02801712C612C60E038
:1004A00072E18AE790E0A30198010E948108490166
:1004B0005A0168E478EE81E090E0A30198010E947F
:1004C000810869017A0181E0C81AD108E108F108C0
:1004D000CC2309F423C1C23009F01EC184E09FEF90
:1004E000C916D104E104F104F1F1ECF164E274EF16
:1004F00080E090E0A30198010E94810869017A01DF
:1005000081E0C81AD108E108F10885E02FEFC21692
:10051000D104E104F10439F130F162E17AE780E0DD
:1005200090E0A30192010E94810869017A0181E0B3
:10053000C81AD108E108F10886E09FEFC916D10476
:10054000E104F10481F07CF0750164018AE0F59426
:10055000E794D794C7948A95D1F721E0C21AD108BD
:10056000E108F10887E09091B100987F892B809392
:10057000B100F7C08BE080930001E2ECF0E0C491A1
:10058000CF3F09F46BCFC13021F150F0C23009F4F4
:100590003EC0C7FD63CF61E08BE00E94E60179CFEA
:1005A00014BC15BC84B5826084BD85B5816085BDF1
:1005B000E9EBF0E0E491F0E0EE0FFF1FEC55FF4FA8
:1005C00085919491EBE9F0E0E491E0932601C0E09D
:1005D0005ACF109280001092810080918100886033
:1005E0008093810080918100816080938100E9EB9C
:1005F000F0E0E491F0E0EE0FFF1FEC55FF4F859126
:100600009491EBE9F0E0E491E09325013CCF109266
:10061000B0001092B1008091B00082608093B00071
:100620008091B10081608093B100E9EBF0E0E4914A
:10063000F0E0EE0FFF1FEC55FF4F859194919093E2
:10064000240180932301EBE9F0E0E491E09322019F
:100650001ACFF12CE12C60E072E18AE790E0A7016B
:1006600098010E948108DA01C9010197A109B10925
:10067000009721E0A207B10564F46C0191E0C1305C
:1006800009F06FC080918100887F892B8093810061
:1006900068C068E478EE81E090E0A70198010E94CC
:1006A000810869017A0181E0C81AD108E108F108DE
:1006B00093E0E5CFD0928900C092880020932B016F
:1006C00030932C0140932D0150932E0180916F00A7
:1006D000826080936F00C2CEC092B3002093270146
:1006E000309328014093290150932A018091700092
:1006F000826080937000B2CE750164019AE0F59437
:10070000E794D794C7949A95D1F791E0C91AD10884
:10071000E108F10895E021C084E0F8CE93E08FEF86
:10072000C816D104E104F104C1F0BCF062E17AE73B
:1007300080E090E0A30192010E94810869017A01A2
:1007400091E0C91AD108E108F1082FEFC216D104CF
:10075000E104F10409F084F694E085B5887F892BE3
:1007600085BD9801220F331FA9E1B0E00E94D50892
:1007700028EE33E040E050E00E94B308C13009F4B5
:1007800099CFC23009F4A8CFC11168CEC7BC20935D
:100790002F01309330014093310150933201809109
:1007A0006E00826080936E0059CE8F929F92AF92BE
:1007B000BF920F931F93CF93DF93CDB7DEB7A1976F
:1007C0000FB6F894DEBF0FBECDBF19A2423008F4B9
:1007D0004AE08E010F5D1F4F842E912CB12CA12C6D
:1007E000A50194010E94B308E62FB901CA01EA30BD
:1007F00044F5E05DD801EE938D01232B242B252BAE
:1008000079F790E080E0109769F0FD0101900020F9
:10081000E9F73197AF014A1B5B0BBD0183E391E020
:100820000E948D00A1960FB6F894DEBF0FBECDBF1B
:10083000DF91CF911F910F91BF90AF909F908F90BC
:100840000895E95CD7CF1F920F920FB60F92112433
:100850002F933F934F935F936F937F938F939F93C8
:10086000AF93BF93EF93FF9380912701909128015D
:10087000A0912901B0912A01892B8A2B8B2BD1F1D0
:1008800090912201E0912301F09124018081892738
:1008900080838091270190912801A0912901B09136
:1008A0002A01181619061A061B069CF480912701C6
:1008B00090912801A0912901B0912A010197A109E5
:1008C000B1098093270190932801A0932901B09347
:1008D0002A01FF91EF91BF91AF919F918F917F91ED
:1008E0006F915F914F913F912F910F900FBE0F909D
:1008F0001F90189580910001E2ECF0E0E4919FEFE9
:1009000090930001E13051F030F0E23069F060E0A6
:100910000E949A01DECF10926E00F9CF90916F0085
:100920009D7F90936F00F3CF909170009D7F909387
:10093000700091E09093B0009091B100987F946026
:100940009093B1001092B300E2CF1F920F920FB6B6
:100950000F9211242F933F934F935F936F937F9345
:100960008F939F93AF93BF93EF93FF9383E391E0B4
:100970000E940B01FF91EF91BF91AF919F918F91D9
:100980007F916F915F914F913F912F910F900FBE8B
:100990000F901F9018951F920F920FB60F9211246F
:1009A0002F938F939F93EF93FF93E0914301F091E7
:1009B00044018081E0914901F0914A0182FD1BC010
:1009C000908180914C018F5F8F7320914D01821730
:1009D00041F0E0914C01F0E0ED5CFE4F958F80938B
:1009E0004C01FF91EF919F918F912F910F900FBE2E
:1009F0000F901F9018958081F4CF1F920F920FB621
:100A00000F9211242F933F938F939F93AF93BF9394
:100A100080911C0190911D01A0911E01B0911F01B8
:100A200030911B0123E0230F2D3758F50196A11DAE
:100A3000B11D20931B0180931C0190931D01A09375
:100A40001E01B0931F018091170190911801A09190
:100A50001901B0911A010196A11DB11D80931701D2
:100A600090931801A0931901B0931A01BF91AF910F
:100A70009F918F913F912F910F900FBE0F901F90DC
:100A8000189526E8230F0296A11DB11DD2CF1F9203
:100A90000F920FB60F9211242F933F934F935F93B2
:100AA0006F937F938F939F93AF93BF93CF93DF9376
:100AB000EF93FF9380911601C091F401D0E087FF7E
:100AC00024C01092850010928400809116018F5FDF
:100AD0008093160180911601082E000C990B8C173B
:100AE0009D0724F4809116018C30C4F1809184001C
:100AF00090918500049680349C4908F47AC08091D6
:100B0000840090918500049676C080911601082E8D
:100B1000000C990B8C179D07C4F6E09116018E2FDF
:100B2000EE0F990BFC01EE0FFF1FE80FF91FE053CA
:100B3000FE4F808186FFC9CFE09116018E2FEE0F08
:100B4000990BFC01EE0FFF1FE80FF91FE053FE4F5A
:100B5000808160E08F730E949A01B7CF209184005A
:100B600030918500E09116018E2FEE0F990BFC015C
:100B7000EE0FFF1FE80FF91FE053FE4F81819281B6
:100B8000820F931F9093890080938800E091160153
:100B90008E2FEE0F990BFC01EE0FFF1FE80FF91FD0
:100BA000E053FE4F808186FF11C0E09116018E2F29
:100BB000EE0F990BFC01EE0FFF1FE80FF91FE0533A
:100BC000FE4F808161E08F730E949A01FF91EF9147
:100BD000DF91CF91BF91AF919F918F917F916F9155
:100BE0005F914F913F912F910F900FBE0F901F90EB
:100BF000189580E49CE990938900809388008FEF9A
:100C000080931601E3CFCF92DF92EF92FF920F9382
:100C10001F93E82FF92F05C001501109210931094F
:100C200061F1908196239417B9F305C00150110921
:100C30002109310911F1908196239413F7CFC12C2A
:100C4000D12CE12CF12C0AC08FEFC81AD80AE80A7F
:100C5000F80A0C151D052E053F0579F080818623C5
:100C6000841791F36C2D7D2D8E2D9F2D1F910F914B
:100C7000FF90EF90DF90CF90089560E070E080E00B
:100C800090E01F910F91FF90EF90DF90CF9008952B
:100C9000109236011092350188EE93E0A0E0B0E0AA
:100CA0008093370190933801A0933901B0933A01B2
:100CB00085E091E0909334018093330185EC90E0DE
:100CC0009093400180933F0184EC90E09093420127
:100CD0008093410180EC90E0909344018093430124
:100CE00081EC90E0909346018093450182EC90E086
:100CF000909348018093470186EC90E090934A01DD
:100D00008093490110924C0110924D0110924E01B6
:100D100010924F018091F4018C3098F491E0980F7B
:100D20009093F4018093F50190E0FC01EE0FFF1F1A
:100D3000E80FF91FE053FE4F88EB9BE0928381831D
:100D400008958FEF8093F5010895CF93DF9300D03E
:100D50001F92CDB7DEB7789484B5826084BD84B528
:100D6000816084BD85B5826085BD85B5816085BDA6
:100D700080916E00816080936E001092810080915E
:100D800081008260809381008091810081608093E6
:100D90008100809180008160809380008091B1000B
:100DA00084608093B1008091B00081608093B00036
:100DB00080917A00846080937A0080917A008260CA
:100DC00080937A0080917A00816080937A0080918C
:100DD0007A00806880937A001092C1008091F501BA
:100DE0008C3008F051C061E083E00E94E601809100
:100DF000F501282F30E0F901EE0FFF1FE20FF31F7E
:100E0000E053FE4F9081907C936090831092F601A6
:100E10001092F7012CE0622F0E94150A829FB00108
:100E2000112430E020E0AB01420F531FFA01EE0F16
:100E3000FF1FE40FF51FE053FE4F908196FD16C093
:100E40002F5F3F4F2C30310571F781110FC0109289
:100E5000800082E0809381001092850010928400CF
:100E6000B19A80916F00826080936F00E091F501EC
:100E70008E2F90E0FC01EE0FFF1FE80FF91FE053EB
:100E8000FE4F80818064808361E087E00E94E601FC
:100E900060E088E00E94E601E0914301F0914401A6
:100EA00082E08083E0913F01F09140011082E09167
:100EB0004101F09142018FEC808310924B01E0914F
:100EC0004701F091480186E08083E0914501F0916F
:100ED0004601808180618083E0914501F091460167
:100EE000808188608083E0914501F0914601808196
:100EF00080688083E0914501F091460180818F7D7B
:100F0000808313E0C12ED12C08E8202E312C84EBF5
:100F1000882E912CA12CB12CB0E0EB2EB0E0FB2E52
:100F200060E087E00E949A01C6010197F1F761E055
:100F300087E00E949A0183E290E00197F1F760E078
:100F400087E00E949A01E8E9F0E06491E6EBF0E0C6
:100F50008491E82FF0E0EE0FFF1FEA57FF4F8591D5
:100F6000949100E412E42FE030E0462F0E94030643
:100F7000611571058105910529F06F5F7F4F8F4FD6
:100F80009F4F9F70072E000C880B990B0E941C0925
:100F900026E933E44BE85CE30E9480090E94E40800
:100FA0007B836A832B01770F660877084AE0C301C9
:100FB000B20177FE0DC06DE283E391E00E942D0146
:100FC00066277727CB0164197509860997094AE0D6
:100FD0000E94D50342E050E063E171E083E391E0D9
:100FE0000E948D002A813B812F3031050CF079C0A1
:100FF00084EF91E00E9417021092210110922001CB
:10100000A0912001B0912101A53BB1050CF06DC06C
:101010003091F50139833C3008F059C08091F701D7
:1010200008E512E0081B110987FD1395000F111F39
:10103000000F111F8091F601F101E81BF10987FDF6
:10104000F395EE0FFF1FEE0FFF1FFB83EA832F01C7
:10105000FF0F66087708B7FF02C0B0E0A0E0980174
:10106000012E000C440B550B24193509460957096C
:101070000E94AB08A50194010E948108420E531EF4
:10108000641E751E2A813B81421653063CF01B8369
:101090000A834016510614F45B824A828A819B813E
:1010A0000297880F991F9B838A834FB7F894998181
:1010B000292F30E0C901880F991F820F931FFC016F
:1010C000E053FE4F2A813B81328321834FBF8091C1
:1010D000200190912101019690932101809320019C
:1010E0008FCF90E080E00E941702E114F10409F430
:1010F00017CF0E94F700882309F412CF0E94000046
:101100000BCF052E97FB1EF400940E94980857FD04
:1011100007D00E94B30807FC03D04EF40C94980843
:1011200050954095309521953F4F4F4F5F4F089513
:1011300090958095709561957F4F8F4F9F4F089543
:101140000E94D508A59F900DB49F900DA49F800D7F
:10115000911D11240895B7FF0C94A0080E94A008C7
:10116000821B930B0895A1E21A2EAA1BBB1BFD0143
:101170000DC0AA1FBB1FEE1FFF1FA217B307E40776
:10118000F50720F0A21BB30BE40BF50B661F771FCE
:10119000881F991F1A9469F76095709580959095AE
:1011A0009B01AC01BD01CF010895A29FB001B39F87
:1011B000C001A39F700D811D1124911DB29F700D60
:1011C000811D1124911D08950E94EB086894B111AE
:1011D0000C947A0908950E945F0988F09F5798F04F
:1011E000B92F9927B751B0F0E1F0660F771F881F2C
:1011F000991F1AF0BA95C9F714C0B13091F00E9446
:101200007909B1E008950C947909672F782F882720
:10121000B85F39F0B93FCCF3869577956795B3956C
:10122000D9F73EF490958095709561957F4F8F4FDB
:101230009F4F0895E89409C097FB3EF490958095E0
:10124000709561957F4F8F4F9F4F9923A9F0F92F8C
:1012500096E9BB279395F695879577956795B7950A
:10126000F111F8CFFAF4BB0F11F460FF1BC06F5FF0
:101270007F4F8F4F9F4F16C0882311F096E911C002
:10128000772321F09EE8872F762F05C0662371F023
:1012900096E8862F70E060E02AF09A95660F771F37
:1012A000881FDAF7880F9695879597F9089557FD67
:1012B0009058440F551F59F05F3F71F04795880FC4
:1012C00097FB991F61F09F3F79F08795089512165B
:1012D00013061406551FF2CF4695F1DF08C0161607
:1012E00017061806991FF1CF8695710561050894B8
:1012F0000895E894BB2766277727CB0197F90895CF
:101300000E9493090C94040A0E94F60938F00E9486
:10131000FD0920F0952311F00C94ED090C94F309CC
:1013200011240C947A090E94570970F3959FC1F318
:10133000950F50E0551F629FF001729FBB27F00D83
:10134000B11D639FAA27F00DB11DAA1F649F6627D8
:10135000B00DA11D661F829F2227B00DA11D621F27
:10136000739FB00DA11D621F839FA00D611D221FE1
:10137000749F3327A00D611D231F849F600D211DC5
:10138000822F762F6A2F11249F5750409AF0F1F048
:1013900088234AF0EE0FFF1FBB1F661F771F881FB1
:1013A00091505040A9F79E3F510580F00C94ED09F3
:1013B0000C947A095F3FE4F3983ED4F386957795D1
:1013C0006795B795F795E7959F5FC1F7FE2B880F57
:1013D000911D9695879597F9089597F99F6780E8ED
:1013E00070E060E008959FEF80EC089500240A9477
:1013F0001616170618060906089500240A941216F0
:101400001306140605060895092E0394000C11F422
:10141000882352F0BB0F40F4BF2B11F460FF04C0CF
:101420006F5F7F4F8F4F9F4F0895991B79E004C0E6
:10143000991F961708F0961B881F7A95C9F7809513
:101440000895EE0FFF1F0590F491E02D0994F89494
:02145000FFCFCC
:10145200FF000000002D018D00BA007A01EB00C9E7
:0614620000DD000D0A0090
:00000001FF
